:100000000C9446000C945D000C945D000C945D0013
:100010000C945D000C945D000C945D000C945D00EC
:100020000C945D000C945D000C945D000C945D00DC
:100030000C945D000C945D000C945D000C945D00CC
:100040000C945D000C945D000C945D000C945D00BC
:100050000C945D000C945D000C945D000C945D00AC
:100060000C945D000C945D000C945D000C945D009C
:100070000C945D000C945D000C945D000C945D008C
:100080000C945D000C945D000C945D0011241FBE67
:10009000CFEFD0E4DEBFCDBF11E0A0E0B1E0E6E1FC
:1000A000F2E000E00BBF02C007900D92AE30B10746
:1000B000D9F70E9488000C9409010C940000CF939A
:1000C000DF9300D01F92CDB7DEB789837B836A832D
:1000D00089818A3031F48A819B81BC018DE00E9444
:1000E0005F0080EC90E0FC018081882F90E08072BE
:1000F00099270097B1F386EC90E02981FC012083D9
:1001000080E090E00F900F900F90DF91CF910895D5
:10011000CF93DF931F92CDB7DEB781E290E0FC0171
:10012000108282E290E02FEFFC01208387E290E0D2
:100130002FEFFC01208388E290E0FC0110821982FD
:10014000198280E290E0FC018081882349F080E2FE
:1001500090E0FC018081833018F480E289834AC0FA
:1001600080E290E0FC018081833048F080E290E002
:10017000FC018081853018F480E389833BC080E2F4
:1001800090E0FC018081853048F080E290E0FC0145
:100190008081873018F488E389832CC080E290E066
:1001A000FC018081873048F080E290E0FC01808192
:1001B0008A3018F48CE389831DC080E290E0FC0152
:1001C00080818A3048F080E290E0FC0180818D30AF
:1001D00018F48EE389830EC080E290E0FC018081F8
:1001E0008D3040F080E290E0FC018081803110F49D
:1001F0008FE3898380E290E0FC018081843018F0F5
:1002000089818064898388E290E02981FC012083D0
:0602100097CFF894FFCF28
:0E02160000000002000000005F000000000079
:00000001FF
